{
  "prepared": {
    "transactions": [
      {
        "from": "0xED2f2CC6f05c847858CE249db483079087CDa578",
        "to": "0x8004A818BFB912233c491871b3d84c89A494BD9e",
        "value": "0x00",
        "nonce": 41,
        "chainId": 11155111,
        "data": "0x1aa3a008",
        "type": 2,
        "maxPriorityFeePerGas": "1149995",
        "maxFeePerGas": "1150126",
        "gasLimit": "0x0189dd"
      }
    ],
    "txId": "0xa6ca37ede506b5c7b151a0ccd41282076c4e5bcbdb9d289d891a33fd586bf9b2",
    "info": {
      "agentUuid": "54399c6e-ffb4-4bd4-90ab-61c96fadc060",
      "standard": "ERC-8004",
      "registryAddress": "0x8004A818BFB912233c491871b3d84c89A494BD9e",
      "reputationRegistryAddress": "0x8004B663056A597Dffe9eCcC1965A193B7388713",
      "agentURI": "ipfs://QmP8Qrdy536J39yBKQ7L6xYqCwFpZMYdUcrgwQaJJ72h3f",
      "chainId": "eip155:11155111"
    },
    "_x402": {
      "payerAddress": "0xED2f2CC6f05c847858CE249db483079087CDa578",
      "requirement": {
        "scheme": "exact",
        "network": "eip155:11155111",
        "asset": "0x1c7D4B196Cb0C7B01d743Fbc6116a902379C7238",
        "amount": "10000",
        "payTo": "0xB610470ae0fEa78A1B27cD3F0D4011eb5361fAf1",
        "maxTimeoutSeconds": 300,
        "extra": {
          "name": "USDC",
          "version": "2",
          "tokenSymbol": "USDC",
          "displayPrice": "0.01 USDC",
          "assetTransferMethod": "eip3009",
          "chainId": "11155111",
          "paymentChainId": "11155111",
          "operationChainId": "11155111",
          "routeKey": "POST /prepare-transactions"
        }
      },
      "settlement": {
        "success": true,
        "transaction": "0xa0e28e0a7a47896d6de90486fdcdf48d8a4b6b98b59d0ebf413c33a668d2f16e",
        "network": "eip155:11155111",
        "payer": "0xED2f2CC6f05c847858CE249db483079087CDa578"
      }
    }
  },
  "signerAddress": "0xED2f2CC6f05c847858CE249db483079087CDa578",
  "signedTransactions": [
    "0x02f87083aa36a72983118c2b83118cae830189dd948004a818bfb912233c491871b3d84c89a494bd9e80841aa3a008c080a0f10113754ddd7c98163822413ff581fd2c94b43032bc45dc71c642002fcf4ce4a01f1238efb89b5527754875c1585ed1e7efd371218a9febba5199391e6dc7d494"
  ],
  "sent": {
    "success": true,
    "totalTransactions": 1,
    "successfulTransactions": 1,
    "failedTransactions": 0,
    "results": [
      {
        "txId": "0xa6ca37ede506b5c7b151a0ccd41282076c4e5bcbdb9d289d891a33fd586bf9b2",
        "success": true,
        "result": {
          "txResponses": [
            {
              "type": 2,
              "chainId": 11155111,
              "nonce": 41,
              "maxPriorityFeePerGas": {
                "type": "BigNumber",
                "hex": "0x118c2b"
              },
              "maxFeePerGas": {
                "type": "BigNumber",
                "hex": "0x118cae"
              },
              "gasPrice": null,
              "gasLimit": {
                "type": "BigNumber",
                "hex": "0x0189dd"
              },
              "to": "0x8004A818BFB912233c491871b3d84c89A494BD9e",
              "value": {
                "type": "BigNumber",
                "hex": "0x00"
              },
              "data": "0x1aa3a008",
              "accessList": [],
              "hash": "0x570771e88a9884b534b0755ca09a8dad9ea415c77a270124e295f45b9a02f13a",
              "v": 0,
              "r": "0xf10113754ddd7c98163822413ff581fd2c94b43032bc45dc71c642002fcf4ce4",
              "s": "0x1f1238efb89b5527754875c1585ed1e7efd371218a9febba5199391e6dc7d494",
              "from": "0xED2f2CC6f05c847858CE249db483079087CDa578",
              "confirmations": 0
            }
          ]
        }
      }
    ],
    "_x402": {
      "payerAddress": "0xED2f2CC6f05c847858CE249db483079087CDa578",
      "requirement": {
        "scheme": "exact",
        "network": "eip155:11155111",
        "asset": "0x1c7D4B196Cb0C7B01d743Fbc6116a902379C7238",
        "amount": "10000",
        "payTo": "0xB610470ae0fEa78A1B27cD3F0D4011eb5361fAf1",
        "maxTimeoutSeconds": 300,
        "extra": {
          "name": "USDC",
          "version": "2",
          "tokenSymbol": "USDC",
          "displayPrice": "0.01 USDC",
          "assetTransferMethod": "eip3009",
          "chainId": "11155111",
          "paymentChainId": "11155111",
          "operationChainId": "11155111",
          "routeKey": "POST /send-transactions"
        }
      },
      "settlement": {
        "success": true,
        "transaction": "0x0b52df1cc54ce2843d83ed8b20cf0e8017df94c5ad1a212fbb2ea2b562e2bba1",
        "network": "eip155:11155111",
        "payer": "0xED2f2CC6f05c847858CE249db483079087CDa578"
      }
    }
  }
}
